{
  "_format": "hh-sol-artifact-1",
  "contractName": "MyEpicNFT",
  "sourceName": "contracts/MyEpicNFT.sol",
  "abi": [
    {
      "inputs": [],
      "stateMutability": "nonpayable",
      "type": "constructor"
    },
    {
      "anonymous": false,
      "inputs": [
        {
          "indexed": true,
          "internalType": "address",
          "name": "owner",
          "type": "address"
        },
        {
          "indexed": true,
          "internalType": "address",
          "name": "approved",
          "type": "address"
        },
        {
          "indexed": true,
          "internalType": "uint256",
          "name": "tokenId",
          "type": "uint256"
        }
      ],
      "name": "Approval",
      "type": "event"
    },
    {
      "anonymous": false,
      "inputs": [
        {
          "indexed": true,
          "internalType": "address",
          "name": "owner",
          "type": "address"
        },
        {
          "indexed": true,
          "internalType": "address",
          "name": "operator",
          "type": "address"
        },
        {
          "indexed": false,
          "internalType": "bool",
          "name": "approved",
          "type": "bool"
        }
      ],
      "name": "ApprovalForAll",
      "type": "event"
    },
    {
      "anonymous": false,
      "inputs": [
        {
          "indexed": false,
          "internalType": "address",
          "name": "sender",
          "type": "address"
        },
        {
          "indexed": false,
          "internalType": "uint256",
          "name": "tokenId",
          "type": "uint256"
        }
      ],
      "name": "NewEpicNFTMinted",
      "type": "event"
    },
    {
      "anonymous": false,
      "inputs": [
        {
          "indexed": false,
          "internalType": "uint256",
          "name": "limit",
          "type": "uint256"
        }
      ],
      "name": "NftMintLimit",
      "type": "event"
    },
    {
      "anonymous": false,
      "inputs": [
        {
          "indexed": true,
          "internalType": "address",
          "name": "from",
          "type": "address"
        },
        {
          "indexed": true,
          "internalType": "address",
          "name": "to",
          "type": "address"
        },
        {
          "indexed": true,
          "internalType": "uint256",
          "name": "tokenId",
          "type": "uint256"
        }
      ],
      "name": "Transfer",
      "type": "event"
    },
    {
      "inputs": [
        {
          "internalType": "address",
          "name": "to",
          "type": "address"
        },
        {
          "internalType": "uint256",
          "name": "tokenId",
          "type": "uint256"
        }
      ],
      "name": "approve",
      "outputs": [],
      "stateMutability": "nonpayable",
      "type": "function"
    },
    {
      "inputs": [
        {
          "internalType": "address",
          "name": "owner",
          "type": "address"
        }
      ],
      "name": "balanceOf",
      "outputs": [
        {
          "internalType": "uint256",
          "name": "",
          "type": "uint256"
        }
      ],
      "stateMutability": "view",
      "type": "function"
    },
    {
      "inputs": [
        {
          "internalType": "uint256",
          "name": "tokenId",
          "type": "uint256"
        }
      ],
      "name": "getApproved",
      "outputs": [
        {
          "internalType": "address",
          "name": "",
          "type": "address"
        }
      ],
      "stateMutability": "view",
      "type": "function"
    },
    {
      "inputs": [],
      "name": "getLimit",
      "outputs": [
        {
          "internalType": "uint256",
          "name": "",
          "type": "uint256"
        }
      ],
      "stateMutability": "view",
      "type": "function"
    },
    {
      "inputs": [
        {
          "internalType": "address",
          "name": "owner",
          "type": "address"
        },
        {
          "internalType": "address",
          "name": "operator",
          "type": "address"
        }
      ],
      "name": "isApprovedForAll",
      "outputs": [
        {
          "internalType": "bool",
          "name": "",
          "type": "bool"
        }
      ],
      "stateMutability": "view",
      "type": "function"
    },
    {
      "inputs": [],
      "name": "makeAnEpicNFT",
      "outputs": [],
      "stateMutability": "nonpayable",
      "type": "function"
    },
    {
      "inputs": [],
      "name": "name",
      "outputs": [
        {
          "internalType": "string",
          "name": "",
          "type": "string"
        }
      ],
      "stateMutability": "view",
      "type": "function"
    },
    {
      "inputs": [
        {
          "internalType": "uint256",
          "name": "tokenId",
          "type": "uint256"
        }
      ],
      "name": "ownerOf",
      "outputs": [
        {
          "internalType": "address",
          "name": "",
          "type": "address"
        }
      ],
      "stateMutability": "view",
      "type": "function"
    },
    {
      "inputs": [
        {
          "internalType": "uint256",
          "name": "tokenId",
          "type": "uint256"
        }
      ],
      "name": "pickRandomFirstWord",
      "outputs": [
        {
          "internalType": "string",
          "name": "",
          "type": "string"
        }
      ],
      "stateMutability": "view",
      "type": "function"
    },
    {
      "inputs": [
        {
          "internalType": "uint256",
          "name": "tokenId",
          "type": "uint256"
        }
      ],
      "name": "pickRandomSecondWord",
      "outputs": [
        {
          "internalType": "string",
          "name": "",
          "type": "string"
        }
      ],
      "stateMutability": "view",
      "type": "function"
    },
    {
      "inputs": [
        {
          "internalType": "uint256",
          "name": "tokenId",
          "type": "uint256"
        }
      ],
      "name": "pickRandomThirdWord",
      "outputs": [
        {
          "internalType": "string",
          "name": "",
          "type": "string"
        }
      ],
      "stateMutability": "view",
      "type": "function"
    },
    {
      "inputs": [
        {
          "internalType": "address",
          "name": "from",
          "type": "address"
        },
        {
          "internalType": "address",
          "name": "to",
          "type": "address"
        },
        {
          "internalType": "uint256",
          "name": "tokenId",
          "type": "uint256"
        }
      ],
      "name": "safeTransferFrom",
      "outputs": [],
      "stateMutability": "nonpayable",
      "type": "function"
    },
    {
      "inputs": [
        {
          "internalType": "address",
          "name": "from",
          "type": "address"
        },
        {
          "internalType": "address",
          "name": "to",
          "type": "address"
        },
        {
          "internalType": "uint256",
          "name": "tokenId",
          "type": "uint256"
        },
        {
          "internalType": "bytes",
          "name": "data",
          "type": "bytes"
        }
      ],
      "name": "safeTransferFrom",
      "outputs": [],
      "stateMutability": "nonpayable",
      "type": "function"
    },
    {
      "inputs": [
        {
          "internalType": "address",
          "name": "operator",
          "type": "address"
        },
        {
          "internalType": "bool",
          "name": "approved",
          "type": "bool"
        }
      ],
      "name": "setApprovalForAll",
      "outputs": [],
      "stateMutability": "nonpayable",
      "type": "function"
    },
    {
      "inputs": [
        {
          "internalType": "bytes4",
          "name": "interfaceId",
          "type": "bytes4"
        }
      ],
      "name": "supportsInterface",
      "outputs": [
        {
          "internalType": "bool",
          "name": "",
          "type": "bool"
        }
      ],
      "stateMutability": "view",
      "type": "function"
    },
    {
      "inputs": [],
      "name": "symbol",
      "outputs": [
        {
          "internalType": "string",
          "name": "",
          "type": "string"
        }
      ],
      "stateMutability": "view",
      "type": "function"
    },
    {
      "inputs": [
        {
          "internalType": "uint256",
          "name": "tokenId",
          "type": "uint256"
        }
      ],
      "name": "tokenURI",
      "outputs": [
        {
          "internalType": "string",
          "name": "",
          "type": "string"
        }
      ],
      "stateMutability": "view",
      "type": "function"
    },
    {
      "inputs": [
        {
          "internalType": "address",
          "name": "from",
          "type": "address"
        },
        {
          "internalType": "address",
          "name": "to",
          "type": "address"
        },
        {
          "internalType": "uint256",
          "name": "tokenId",
          "type": "uint256"
        }
      ],
      "name": "transferFrom",
      "outputs": [],
      "stateMutability": "nonpayable",
      "type": "function"
    }
  ],
  "bytecode": "0x6080604052603260085560405180610160016040528061012f81526020016200428061012f9139600990805190602001906200003d92919062000683565b506040518060c001604052806040518060400160405280600581526020017f486170707900000000000000000000000000000000000000000000000000000081525081526020016040518060400160405280600381526020017f536164000000000000000000000000000000000000000000000000000000000081525081526020016040518060400160405280600581526020017f416e67727900000000000000000000000000000000000000000000000000000081525081526020016040518060400160405280600481526020017f4c6f76650000000000000000000000000000000000000000000000000000000081525081526020016040518060400160405280600781526020017f416e78696574790000000000000000000000000000000000000000000000000081525081526020016040518060400160405280600881526020017f506f736974697665000000000000000000000000000000000000000000000000815250815250600a906006620001bb92919062000714565b506040518060c001604052806040518060400160405280600481526020017f466f6f640000000000000000000000000000000000000000000000000000000081525081526020016040518060400160405280600481526020017f426f6f6b0000000000000000000000000000000000000000000000000000000081525081526020016040518060400160405280600581526020017f4d6f76696500000000000000000000000000000000000000000000000000000081525081526020016040518060400160405280600581526020017f4d7573696300000000000000000000000000000000000000000000000000000081525081526020016040518060400160405280600581526020017f53706f727400000000000000000000000000000000000000000000000000000081525081526020016040518060400160405280600781526020017f5069637475726500000000000000000000000000000000000000000000000000815250815250600b9060066200033992919062000714565b506040518060c001604052806040518060400160405280600381526020017f446f67000000000000000000000000000000000000000000000000000000000081525081526020016040518060400160405280600681526020017f526162626974000000000000000000000000000000000000000000000000000081525081526020016040518060400160405280600381526020017f436174000000000000000000000000000000000000000000000000000000000081525081526020016040518060400160405280600581526020017f486f72736500000000000000000000000000000000000000000000000000000081525081526020016040518060400160405280600781526020017f50656e6775696e0000000000000000000000000000000000000000000000000081525081526020016040518060400160405280600481526020017f4c696f6e00000000000000000000000000000000000000000000000000000000815250815250600c906006620004b792919062000714565b50348015620004c557600080fd5b506040518060400160405280600981526020017f5371756172654e465400000000000000000000000000000000000000000000008152506040518060400160405280600681526020017f535155415245000000000000000000000000000000000000000000000000000081525081600090805190602001906200054a92919062000683565b5080600190805190602001906200056392919062000683565b505050620005b16040518060400160405280601881526020017f54686973206973206d79204e465420636f6e74726163742e0000000000000000815250620005b760201b620011e21760201c565b62000935565b6200065781604051602401620005ce919062000849565b6040516020818303038152906040527f41304fac000000000000000000000000000000000000000000000000000000007bffffffffffffffffffffffffffffffffffffffffffffffffffffffff19166020820180517bffffffffffffffffffffffffffffffffffffffffffffffffffffffff83818316178352505050506200065a60201b60201c565b50565b60008151905060006a636f6e736f6c652e6c6f679050602083016000808483855afa5050505050565b8280546200069190620008bf565b90600052602060002090601f016020900481019282620006b5576000855562000701565b82601f10620006d057805160ff191683800117855562000701565b8280016001018555821562000701579182015b8281111562000700578251825591602001919060010190620006e3565b5b5090506200071091906200077b565b5090565b82805482825590600052602060002090810192821562000768579160200282015b82811115620007675782518290805190602001906200075692919062000683565b509160200191906001019062000735565b5b5090506200077791906200079a565b5090565b5b80821115620007965760008160009055506001016200077c565b5090565b5b80821115620007be5760008181620007b49190620007c2565b506001016200079b565b5090565b508054620007d090620008bf565b6000825580601f10620007e4575062000805565b601f0160209004906000526020600020908101906200080491906200077b565b5b50565b600062000815826200086d565b62000821818562000878565b93506200083381856020860162000889565b6200083e8162000924565b840191505092915050565b6000602082019050818103600083015262000865818462000808565b905092915050565b600081519050919050565b600082825260208201905092915050565b60005b83811015620008a95780820151818401526020810190506200088c565b83811115620008b9576000848401525b50505050565b60006002820490506001821680620008d857607f821691505b60208210811415620008ef57620008ee620008f5565b5b50919050565b7f4e487b7100000000000000000000000000000000000000000000000000000000600052602260045260246000fd5b6000601f19601f8301169050919050565b61393b80620009456000396000f3fe608060405234801561001057600080fd5b50600436106101165760003560e01c806395d89b41116100a2578063b88d4fde11610071578063b88d4fde14610305578063c575757a14610321578063c87b56dd14610351578063de9d132f14610381578063e985e9c51461038b57610116565b806395d89b411461027d578063a22cb4651461029b578063b187301f146102b7578063b295a00e146102e757610116565b806323b872dd116100e957806323b872dd146101b55780632de38d68146101d157806342842e0e146102015780636352211e1461021d57806370a082311461024d57610116565b806301ffc9a71461011b57806306fdde031461014b578063081812fc14610169578063095ea7b314610199575b600080fd5b6101356004803603810190610130919061266d565b6103bb565b6040516101429190612d05565b60405180910390f35b61015361049d565b6040516101609190612d20565b60405180910390f35b610183600480360381019061017e91906126bf565b61052f565b6040516101909190612c75565b60405180910390f35b6101b360048036038101906101ae9190612631565b610575565b005b6101cf60048036038101906101ca919061252b565b61068d565b005b6101eb60048036038101906101e691906126bf565b6106ed565b6040516101f89190612d20565b60405180910390f35b61021b6004803603810190610216919061252b565b610889565b005b610237600480360381019061023291906126bf565b6108a9565b6040516102449190612c75565b60405180910390f35b610267600480360381019061026291906124c6565b61095b565b6040516102749190612f30565b60405180910390f35b610285610a13565b6040516102929190612d20565b60405180910390f35b6102b560048036038101906102b091906125f5565b610aa5565b005b6102d160048036038101906102cc91906126bf565b610abb565b6040516102de9190612d20565b60405180910390f35b6102ef610bd9565b6040516102fc9190612f30565b60405180910390f35b61031f600480360381019061031a919061257a565b610be3565b005b61033b600480360381019061033691906126bf565b610c45565b6040516103489190612d20565b60405180910390f35b61036b600480360381019061036691906126bf565b610d63565b6040516103789190612d20565b60405180910390f35b610389610e76565b005b6103a560048036038101906103a091906124ef565b61114e565b6040516103b29190612d05565b60405180910390f35b60007f80ac58cd000000000000000000000000000000000000000000000000000000007bffffffffffffffffffffffffffffffffffffffffffffffffffffffff1916827bffffffffffffffffffffffffffffffffffffffffffffffffffffffff1916148061048657507f5b5e139f000000000000000000000000000000000000000000000000000000007bffffffffffffffffffffffffffffffffffffffffffffffffffffffff1916827bffffffffffffffffffffffffffffffffffffffffffffffffffffffff1916145b8061049657506104958261127b565b5b9050919050565b6060600080546104ac906131c4565b80601f01602080910402602001604051908101604052809291908181526020018280546104d8906131c4565b80156105255780601f106104fa57610100808354040283529160200191610525565b820191906000526020600020905b81548152906001019060200180831161050857829003601f168201915b5050505050905090565b600061053a826112e5565b6004600083815260200190815260200160002060009054906101000a900473ffffffffffffffffffffffffffffffffffffffff169050919050565b6000610580826108a9565b90508073ffffffffffffffffffffffffffffffffffffffff168373ffffffffffffffffffffffffffffffffffffffff1614156105f1576040517f08c379a00000000000000000000000000000000000000000000000000000000081526004016105e890612ef0565b60405180910390fd5b8073ffffffffffffffffffffffffffffffffffffffff16610610611330565b73ffffffffffffffffffffffffffffffffffffffff16148061063f575061063e81610639611330565b61114e565b5b61067e576040517f08c379a000000000000000000000000000000000000000000000000000000000815260040161067590612e90565b60405180910390fd5b6106888383611338565b505050565b61069e610698611330565b826113f1565b6106dd576040517f08c379a00000000000000000000000000000000000000000000000000000000081526004016106d490612f10565b60405180910390fd5b6106e8838383611486565b505050565b606060006107216106fd846116ed565b60405160200161070d9190612c31565b60405160208183030381529060405261189a565b90506107626040518060400160405280600a81526020017f72616e6420736565643a00000000000000000000000000000000000000000000815250826118cd565b600a80549050816107739190613270565b90506107b46040518060400160405280601181526020017f72616e6420666972737420776f72643a20000000000000000000000000000000815250826118cd565b600a81815481106107ee577f4e487b7100000000000000000000000000000000000000000000000000000000600052603260045260246000fd5b906000526020600020018054610803906131c4565b80601f016020809104026020016040519081016040528092919081815260200182805461082f906131c4565b801561087c5780601f106108515761010080835404028352916020019161087c565b820191906000526020600020905b81548152906001019060200180831161085f57829003601f168201915b5050505050915050919050565b6108a483838360405180602001604052806000815250610be3565b505050565b6000806002600084815260200190815260200160002060009054906101000a900473ffffffffffffffffffffffffffffffffffffffff169050600073ffffffffffffffffffffffffffffffffffffffff168173ffffffffffffffffffffffffffffffffffffffff161415610952576040517f08c379a000000000000000000000000000000000000000000000000000000000815260040161094990612ed0565b60405180910390fd5b80915050919050565b60008073ffffffffffffffffffffffffffffffffffffffff168273ffffffffffffffffffffffffffffffffffffffff1614156109cc576040517f08c379a00000000000000000000000000000000000000000000000000000000081526004016109c390612e50565b60405180910390fd5b600360008373ffffffffffffffffffffffffffffffffffffffff1673ffffffffffffffffffffffffffffffffffffffff168152602001908152602001600020549050919050565b606060018054610a22906131c4565b80601f0160208091040260200160405190810160405280929190818152602001828054610a4e906131c4565b8015610a9b5780601f10610a7057610100808354040283529160200191610a9b565b820191906000526020600020905b815481529060010190602001808311610a7e57829003601f168201915b5050505050905090565b610ab7610ab0611330565b8383611969565b5050565b60606000610aef610acb846116ed565b604051602001610adb9190612bca565b60405160208183030381529060405261189a565b9050600b8054905081610b029190613270565b9050600b8181548110610b3e577f4e487b7100000000000000000000000000000000000000000000000000000000600052603260045260246000fd5b906000526020600020018054610b53906131c4565b80601f0160208091040260200160405190810160405280929190818152602001828054610b7f906131c4565b8015610bcc5780601f10610ba157610100808354040283529160200191610bcc565b820191906000526020600020905b815481529060010190602001808311610baf57829003601f168201915b5050505050915050919050565b6000600854905090565b610bf4610bee611330565b836113f1565b610c33576040517f08c379a0000000000000000000000000000000000000000000000000000000008152600401610c2a90612f10565b60405180910390fd5b610c3f84848484611ad6565b50505050565b60606000610c79610c55846116ed565b604051602001610c659190612ba8565b60405160208183030381529060405261189a565b9050600c8054905081610c8c9190613270565b9050600c8181548110610cc8577f4e487b7100000000000000000000000000000000000000000000000000000000600052603260045260246000fd5b906000526020600020018054610cdd906131c4565b80601f0160208091040260200160405190810160405280929190818152602001828054610d09906131c4565b8015610d565780601f10610d2b57610100808354040283529160200191610d56565b820191906000526020600020905b815481529060010190602001808311610d3957829003601f168201915b5050505050915050919050565b6060610d6e826112e5565b6000600660008481526020019081526020016000208054610d8e906131c4565b80601f0160208091040260200160405190810160405280929190818152602001828054610dba906131c4565b8015610e075780601f10610ddc57610100808354040283529160200191610e07565b820191906000526020600020905b815481529060010190602001808311610dea57829003601f168201915b505050505090506000610e18611b32565b9050600081511415610e2e578192505050610e71565b600082511115610e63578082604051602001610e4b929190612b0a565b60405160208183030381529060405292505050610e71565b610e6c84611b49565b925050505b919050565b60006008541461110d576000610e8c6007611bb1565b90506000610e99826106ed565b90506000610ea683610abb565b90506000610eb384610c45565b90506000838383604051602001610ecc93929190612b2e565b604051602081830303815290604052905060006009858585604051602001610ef79493929190612b5f565b6040516020818303038152906040529050610f466040518060400160405280601581526020017f0a2d2d2d2d2d2d2d2d2d2d2d2d2d2d2d2d2d2d2d2d00000000000000000000008152506111e2565b610f4f816111e2565b610f8d6040518060400160405280601581526020017f2d2d2d2d2d2d2d2d2d2d2d2d2d2d2d2d2d2d2d2d0a00000000000000000000008152506111e2565b6000610fc183610f9c84611bbf565b604051602001610fad929190612bec565b604051602081830303815290604052611bbf565b9050600081604051602001610fd69190612c53565b60405160208183030381529060405290506110256040518060400160405280601581526020017f0a2d2d2d2d2d20546f6b656e20555249202d2d2d2d00000000000000000000008152506111e2565b61102e816111e2565b61106c6040518060400160405280601581526020017f2d2d2d2d2d2d2d2d2d2d2d2d2d2d2d2d2d2d2d2d0a00000000000000000000008152506111e2565b6110763389611d7d565b6110808882611d9b565b6110a36040518060600160405280602581526020016138a1602591398933611e0f565b6110ad6007611eae565b6001600860008282546110c091906130da565b925050819055507febb98688741ffa4c7589bf325de30cf7becb63de567842e1ccdb6cb949fdc82c33896040516110f8929190612cdc565b60405180910390a1505050505050505061114c565b61114b6040518060400160405280601881526020017f796f752063616e6e6f74206d696e7420616e796d6f72652100000000000000008152506111e2565b5b565b6000600560008473ffffffffffffffffffffffffffffffffffffffff1673ffffffffffffffffffffffffffffffffffffffff16815260200190815260200160002060008373ffffffffffffffffffffffffffffffffffffffff1673ffffffffffffffffffffffffffffffffffffffff16815260200190815260200160002060009054906101000a900460ff16905092915050565b611278816040516024016111f69190612d20565b6040516020818303038152906040527f41304fac000000000000000000000000000000000000000000000000000000007bffffffffffffffffffffffffffffffffffffffffffffffffffffffff19166020820180517bffffffffffffffffffffffffffffffffffffffffffffffffffffffff8381831617835250505050611ec4565b50565b60007f01ffc9a7000000000000000000000000000000000000000000000000000000007bffffffffffffffffffffffffffffffffffffffffffffffffffffffff1916827bffffffffffffffffffffffffffffffffffffffffffffffffffffffff1916149050919050565b6112ee81611eed565b61132d576040517f08c379a000000000000000000000000000000000000000000000000000000000815260040161132490612ed0565b60405180910390fd5b50565b600033905090565b816004600083815260200190815260200160002060006101000a81548173ffffffffffffffffffffffffffffffffffffffff021916908373ffffffffffffffffffffffffffffffffffffffff160217905550808273ffffffffffffffffffffffffffffffffffffffff166113ab836108a9565b73ffffffffffffffffffffffffffffffffffffffff167f8c5be1e5ebec7d5bd14f71427d1e84f3dd0314c0f7b2291e5b200ac8c7c3b92560405160405180910390a45050565b6000806113fd836108a9565b90508073ffffffffffffffffffffffffffffffffffffffff168473ffffffffffffffffffffffffffffffffffffffff16148061143f575061143e818561114e565b5b8061147d57508373ffffffffffffffffffffffffffffffffffffffff166114658461052f565b73ffffffffffffffffffffffffffffffffffffffff16145b91505092915050565b8273ffffffffffffffffffffffffffffffffffffffff166114a6826108a9565b73ffffffffffffffffffffffffffffffffffffffff16146114fc576040517f08c379a00000000000000000000000000000000000000000000000000000000081526004016114f390612dd0565b60405180910390fd5b600073ffffffffffffffffffffffffffffffffffffffff168273ffffffffffffffffffffffffffffffffffffffff16141561156c576040517f08c379a000000000000000000000000000000000000000000000000000000000815260040161156390612e10565b60405180910390fd5b611577838383611f59565b611582600082611338565b6001600360008573ffffffffffffffffffffffffffffffffffffffff1673ffffffffffffffffffffffffffffffffffffffff16815260200190815260200160002060008282546115d291906130da565b925050819055506001600360008473ffffffffffffffffffffffffffffffffffffffff1673ffffffffffffffffffffffffffffffffffffffff16815260200190815260200160002060008282546116299190612ff9565b92505081905550816002600083815260200190815260200160002060006101000a81548173ffffffffffffffffffffffffffffffffffffffff021916908373ffffffffffffffffffffffffffffffffffffffff160217905550808273ffffffffffffffffffffffffffffffffffffffff168473ffffffffffffffffffffffffffffffffffffffff167fddf252ad1be2c89b69c2b068fc378daa952ba7f163c4a11628f55a4df523b3ef60405160405180910390a46116e8838383611f5e565b505050565b60606000821415611735576040518060400160405280600181526020017f30000000000000000000000000000000000000000000000000000000000000008152509050611895565b600082905060005b6000821461176757808061175090613227565b915050600a82611760919061304f565b915061173d565b60008167ffffffffffffffff8111156117a9577f4e487b7100000000000000000000000000000000000000000000000000000000600052604160045260246000fd5b6040519080825280601f01601f1916602001820160405280156117db5781602001600182028036833780820191505090505b5090505b6000851461188e576001826117f491906130da565b9150600a856118039190613270565b603061180f9190612ff9565b60f81b81838151811061184b577f4e487b7100000000000000000000000000000000000000000000000000000000600052603260045260246000fd5b60200101907effffffffffffffffffffffffffffffffffffffffffffffffffffffffffffff1916908160001a905350600a85611887919061304f565b94506117df565b8093505050505b919050565b6000816040516020016118ad9190612af3565b6040516020818303038152906040528051906020012060001c9050919050565b61196582826040516024016118e3929190612d42565b6040516020818303038152906040527f9710a9d0000000000000000000000000000000000000000000000000000000007bffffffffffffffffffffffffffffffffffffffffffffffffffffffff19166020820180517bffffffffffffffffffffffffffffffffffffffffffffffffffffffff8381831617835250505050611ec4565b5050565b8173ffffffffffffffffffffffffffffffffffffffff168373ffffffffffffffffffffffffffffffffffffffff1614156119d8576040517f08c379a00000000000000000000000000000000000000000000000000000000081526004016119cf90612e30565b60405180910390fd5b80600560008573ffffffffffffffffffffffffffffffffffffffff1673ffffffffffffffffffffffffffffffffffffffff16815260200190815260200160002060008473ffffffffffffffffffffffffffffffffffffffff1673ffffffffffffffffffffffffffffffffffffffff16815260200190815260200160002060006101000a81548160ff0219169083151502179055508173ffffffffffffffffffffffffffffffffffffffff168373ffffffffffffffffffffffffffffffffffffffff167f17307eab39ab6107e8899845ad3d59bd9653f200f220920489ca2b5937696c3183604051611ac99190612d05565b60405180910390a3505050565b611ae1848484611486565b611aed84848484611f63565b611b2c576040517f08c379a0000000000000000000000000000000000000000000000000000000008152600401611b2390612db0565b60405180910390fd5b50505050565b606060405180602001604052806000815250905090565b6060611b54826112e5565b6000611b5e611b32565b90506000815111611b7e5760405180602001604052806000815250611ba9565b80611b88846116ed565b604051602001611b99929190612b0a565b6040516020818303038152906040525b915050919050565b600081600001549050919050565b60606000825190506000811415611be85760405180602001604052806000815250915050611d78565b60006003600283611bf99190612ff9565b611c03919061304f565b6004611c0f9190613080565b90506000602082611c209190612ff9565b67ffffffffffffffff811115611c5f577f4e487b7100000000000000000000000000000000000000000000000000000000600052604160045260246000fd5b6040519080825280601f01601f191660200182016040528015611c915781602001600182028036833780820191505090505b50905060006040518060600160405280604081526020016138c6604091399050600181016020830160005b86811015611d355760038101905062ffffff818a015116603f8160121c168401518060081b905060ff603f83600c1c1686015116810190508060081b905060ff603f8360061c1686015116810190508060081b905060ff603f831686015116810190508060e01b90508084526004840193505050611cbc565b506003860660018114611d4f5760028114611d5f57611d6a565b613d3d60f01b6002830352611d6a565b603d60f81b60018303525b508484525050819450505050505b919050565b611d978282604051806020016040528060008152506120fa565b5050565b611da482611eed565b611de3576040517f08c379a0000000000000000000000000000000000000000000000000000000008152600401611dda90612e70565b60405180910390fd5b80600660008481526020019081526020016000209080519060200190611e0a929190612352565b505050565b611ea9838383604051602401611e2793929190612d72565b6040516020818303038152906040527fe3849f79000000000000000000000000000000000000000000000000000000007bffffffffffffffffffffffffffffffffffffffffffffffffffffffff19166020820180517bffffffffffffffffffffffffffffffffffffffffffffffffffffffff8381831617835250505050611ec4565b505050565b6001816000016000828254019250508190555050565b60008151905060006a636f6e736f6c652e6c6f679050602083016000808483855afa5050505050565b60008073ffffffffffffffffffffffffffffffffffffffff166002600084815260200190815260200160002060009054906101000a900473ffffffffffffffffffffffffffffffffffffffff1673ffffffffffffffffffffffffffffffffffffffff1614159050919050565b505050565b505050565b6000611f848473ffffffffffffffffffffffffffffffffffffffff16612155565b156120ed578373ffffffffffffffffffffffffffffffffffffffff1663150b7a02611fad611330565b8786866040518563ffffffff1660e01b8152600401611fcf9493929190612c90565b602060405180830381600087803b158015611fe957600080fd5b505af192505050801561201a57506040513d601f19601f820116820180604052508101906120179190612696565b60015b61209d573d806000811461204a576040519150601f19603f3d011682016040523d82523d6000602084013e61204f565b606091505b50600081511415612095576040517f08c379a000000000000000000000000000000000000000000000000000000000815260040161208c90612db0565b60405180910390fd5b805181602001fd5b63150b7a0260e01b7bffffffffffffffffffffffffffffffffffffffffffffffffffffffff1916817bffffffffffffffffffffffffffffffffffffffffffffffffffffffff1916149150506120f2565b600190505b949350505050565b6121048383612178565b6121116000848484611f63565b612150576040517f08c379a000000000000000000000000000000000000000000000000000000000815260040161214790612db0565b60405180910390fd5b505050565b6000808273ffffffffffffffffffffffffffffffffffffffff163b119050919050565b600073ffffffffffffffffffffffffffffffffffffffff168273ffffffffffffffffffffffffffffffffffffffff1614156121e8576040517f08c379a00000000000000000000000000000000000000000000000000000000081526004016121df90612eb0565b60405180910390fd5b6121f181611eed565b15612231576040517f08c379a000000000000000000000000000000000000000000000000000000000815260040161222890612df0565b60405180910390fd5b61223d60008383611f59565b6001600360008473ffffffffffffffffffffffffffffffffffffffff1673ffffffffffffffffffffffffffffffffffffffff168152602001908152602001600020600082825461228d9190612ff9565b92505081905550816002600083815260200190815260200160002060006101000a81548173ffffffffffffffffffffffffffffffffffffffff021916908373ffffffffffffffffffffffffffffffffffffffff160217905550808273ffffffffffffffffffffffffffffffffffffffff16600073ffffffffffffffffffffffffffffffffffffffff167fddf252ad1be2c89b69c2b068fc378daa952ba7f163c4a11628f55a4df523b3ef60405160405180910390a461234e60008383611f5e565b5050565b82805461235e906131c4565b90600052602060002090601f01602090048101928261238057600085556123c7565b82601f1061239957805160ff19168380011785556123c7565b828001600101855582156123c7579182015b828111156123c65782518255916020019190600101906123ab565b5b5090506123d491906123d8565b5090565b5b808211156123f15760008160009055506001016123d9565b5090565b600061240861240384612f70565b612f4b565b90508281526020810184848401111561242057600080fd5b61242b848285613182565b509392505050565b60008135905061244281613844565b92915050565b6000813590506124578161385b565b92915050565b60008135905061246c81613872565b92915050565b60008151905061248181613872565b92915050565b600082601f83011261249857600080fd5b81356124a88482602086016123f5565b91505092915050565b6000813590506124c081613889565b92915050565b6000602082840312156124d857600080fd5b60006124e684828501612433565b91505092915050565b6000806040838503121561250257600080fd5b600061251085828601612433565b925050602061252185828601612433565b9150509250929050565b60008060006060848603121561254057600080fd5b600061254e86828701612433565b935050602061255f86828701612433565b9250506040612570868287016124b1565b9150509250925092565b6000806000806080858703121561259057600080fd5b600061259e87828801612433565b94505060206125af87828801612433565b93505060406125c0878288016124b1565b925050606085013567ffffffffffffffff8111156125dd57600080fd5b6125e987828801612487565b91505092959194509250565b6000806040838503121561260857600080fd5b600061261685828601612433565b925050602061262785828601612448565b9150509250929050565b6000806040838503121561264457600080fd5b600061265285828601612433565b9250506020612663858286016124b1565b9150509250929050565b60006020828403121561267f57600080fd5b600061268d8482850161245d565b91505092915050565b6000602082840312156126a857600080fd5b60006126b684828501612472565b91505092915050565b6000602082840312156126d157600080fd5b60006126df848285016124b1565b91505092915050565b6126f18161310e565b82525050565b61270081613120565b82525050565b600061271182612fb6565b61271b8185612fcc565b935061272b818560208601613191565b6127348161335d565b840191505092915050565b600061274a82612fc1565b6127548185612fdd565b9350612764818560208601613191565b61276d8161335d565b840191505092915050565b600061278382612fc1565b61278d8185612fee565b935061279d818560208601613191565b80840191505092915050565b600081546127b6816131c4565b6127c08186612fee565b945060018216600081146127db57600181146127ec5761281f565b60ff1983168652818601935061281f565b6127f585612fa1565b60005b83811015612817578154818901526001820191506020810190506127f8565b838801955050505b50505092915050565b6000612835603283612fdd565b91506128408261336e565b604082019050919050565b6000612858602583612fdd565b9150612863826133bd565b604082019050919050565b600061287b601c83612fdd565b91506128868261340c565b602082019050919050565b600061289e600a83612fee565b91506128a982613435565b600a82019050919050565b60006128c1602483612fdd565b91506128cc8261345e565b604082019050919050565b60006128e4601983612fdd565b91506128ef826134ad565b602082019050919050565b6000612907606383612fee565b9150612912826134d6565b606382019050919050565b600061292a600b83612fee565b915061293582613571565b600b82019050919050565b600061294d600d83612fee565b91506129588261359a565b600d82019050919050565b6000612970602983612fdd565b915061297b826135c3565b604082019050919050565b6000612993602e83612fdd565b915061299e82613612565b604082019050919050565b60006129b6600283612fee565b91506129c182613661565b600282019050919050565b60006129d9603e83612fdd565b91506129e48261368a565b604082019050919050565b60006129fc602083612fdd565b9150612a07826136d9565b602082019050919050565b6000612a1f600a83612fee565b9150612a2a82613702565b600a82019050919050565b6000612a42601883612fdd565b9150612a4d8261372b565b602082019050919050565b6000612a65602183612fdd565b9150612a7082613754565b604082019050919050565b6000612a88600a83612fee565b9150612a93826137a3565b600a82019050919050565b6000612aab601d83612fee565b9150612ab6826137cc565b601d82019050919050565b6000612ace602e83612fdd565b9150612ad9826137f5565b604082019050919050565b612aed81613178565b82525050565b6000612aff8284612778565b915081905092915050565b6000612b168285612778565b9150612b228284612778565b91508190509392505050565b6000612b3a8286612778565b9150612b468285612778565b9150612b528284612778565b9150819050949350505050565b6000612b6b82876127a9565b9150612b778286612778565b9150612b838285612778565b9150612b8f8284612778565b9150612b9a82612940565b915081905095945050505050565b6000612bb382612891565b9150612bbf8284612778565b915081905092915050565b6000612bd58261291d565b9150612be18284612778565b915081905092915050565b6000612bf782612a12565b9150612c038285612778565b9150612c0e826128fa565b9150612c1a8284612778565b9150612c25826129a9565b91508190509392505050565b6000612c3c82612a7b565b9150612c488284612778565b915081905092915050565b6000612c5e82612a9e565b9150612c6a8284612778565b915081905092915050565b6000602082019050612c8a60008301846126e8565b92915050565b6000608082019050612ca560008301876126e8565b612cb260208301866126e8565b612cbf6040830185612ae4565b8181036060830152612cd18184612706565b905095945050505050565b6000604082019050612cf160008301856126e8565b612cfe6020830184612ae4565b9392505050565b6000602082019050612d1a60008301846126f7565b92915050565b60006020820190508181036000830152612d3a818461273f565b905092915050565b60006040820190508181036000830152612d5c818561273f565b9050612d6b6020830184612ae4565b9392505050565b60006060820190508181036000830152612d8c818661273f565b9050612d9b6020830185612ae4565b612da860408301846126e8565b949350505050565b60006020820190508181036000830152612dc981612828565b9050919050565b60006020820190508181036000830152612de98161284b565b9050919050565b60006020820190508181036000830152612e098161286e565b9050919050565b60006020820190508181036000830152612e29816128b4565b9050919050565b60006020820190508181036000830152612e49816128d7565b9050919050565b60006020820190508181036000830152612e6981612963565b9050919050565b60006020820190508181036000830152612e8981612986565b9050919050565b60006020820190508181036000830152612ea9816129cc565b9050919050565b60006020820190508181036000830152612ec9816129ef565b9050919050565b60006020820190508181036000830152612ee981612a35565b9050919050565b60006020820190508181036000830152612f0981612a58565b9050919050565b60006020820190508181036000830152612f2981612ac1565b9050919050565b6000602082019050612f456000830184612ae4565b92915050565b6000612f55612f66565b9050612f6182826131f6565b919050565b6000604051905090565b600067ffffffffffffffff821115612f8b57612f8a61332e565b5b612f948261335d565b9050602081019050919050565b60008190508160005260206000209050919050565b600081519050919050565b600081519050919050565b600082825260208201905092915050565b600082825260208201905092915050565b600081905092915050565b600061300482613178565b915061300f83613178565b9250827fffffffffffffffffffffffffffffffffffffffffffffffffffffffffffffffff03821115613044576130436132a1565b5b828201905092915050565b600061305a82613178565b915061306583613178565b925082613075576130746132d0565b5b828204905092915050565b600061308b82613178565b915061309683613178565b9250817fffffffffffffffffffffffffffffffffffffffffffffffffffffffffffffffff04831182151516156130cf576130ce6132a1565b5b828202905092915050565b60006130e582613178565b91506130f083613178565b925082821015613103576131026132a1565b5b828203905092915050565b600061311982613158565b9050919050565b60008115159050919050565b60007fffffffff0000000000000000000000000000000000000000000000000000000082169050919050565b600073ffffffffffffffffffffffffffffffffffffffff82169050919050565b6000819050919050565b82818337600083830152505050565b60005b838110156131af578082015181840152602081019050613194565b838111156131be576000848401525b50505050565b600060028204905060018216806131dc57607f821691505b602082108114156131f0576131ef6132ff565b5b50919050565b6131ff8261335d565b810181811067ffffffffffffffff8211171561321e5761321d61332e565b5b80604052505050565b600061323282613178565b91507fffffffffffffffffffffffffffffffffffffffffffffffffffffffffffffffff821415613265576132646132a1565b5b600182019050919050565b600061327b82613178565b915061328683613178565b925082613296576132956132d0565b5b828206905092915050565b7f4e487b7100000000000000000000000000000000000000000000000000000000600052601160045260246000fd5b7f4e487b7100000000000000000000000000000000000000000000000000000000600052601260045260246000fd5b7f4e487b7100000000000000000000000000000000000000000000000000000000600052602260045260246000fd5b7f4e487b7100000000000000000000000000000000000000000000000000000000600052604160045260246000fd5b6000601f19601f8301169050919050565b7f4552433732313a207472616e7366657220746f206e6f6e20455243373231526560008201527f63656976657220696d706c656d656e7465720000000000000000000000000000602082015250565b7f4552433732313a207472616e736665722066726f6d20696e636f72726563742060008201527f6f776e6572000000000000000000000000000000000000000000000000000000602082015250565b7f4552433732313a20746f6b656e20616c7265616479206d696e74656400000000600082015250565b7f54484952445f574f524400000000000000000000000000000000000000000000600082015250565b7f4552433732313a207472616e7366657220746f20746865207a65726f2061646460008201527f7265737300000000000000000000000000000000000000000000000000000000602082015250565b7f4552433732313a20617070726f766520746f2063616c6c657200000000000000600082015250565b7f222c20226465736372697074696f6e223a20224120686967686c79206163636c60008201527f61696d656420636f6c6c656374696f6e206f6620737175617265732e222c202260208201527f696d616765223a2022646174613a696d6167652f7376672b786d6c3b6261736560408201527f36342c0000000000000000000000000000000000000000000000000000000000606082015250565b7f5345434f4e445f574f5244000000000000000000000000000000000000000000600082015250565b7f3c2f746578743e3c2f7376673e00000000000000000000000000000000000000600082015250565b7f4552433732313a2061646472657373207a65726f206973206e6f74206120766160008201527f6c6964206f776e65720000000000000000000000000000000000000000000000602082015250565b7f45524337323155524953746f726167653a2055524920736574206f66206e6f6e60008201527f6578697374656e7420746f6b656e000000000000000000000000000000000000602082015250565b7f227d000000000000000000000000000000000000000000000000000000000000600082015250565b7f4552433732313a20617070726f76652063616c6c6572206973206e6f7420746f60008201527f6b656e206f776e6572206e6f7220617070726f76656420666f7220616c6c0000602082015250565b7f4552433732313a206d696e7420746f20746865207a65726f2061646472657373600082015250565b7f7b226e616d65223a202200000000000000000000000000000000000000000000600082015250565b7f4552433732313a20696e76616c696420746f6b656e2049440000000000000000600082015250565b7f4552433732313a20617070726f76616c20746f2063757272656e74206f776e6560008201527f7200000000000000000000000000000000000000000000000000000000000000602082015250565b7f46495253545f574f524400000000000000000000000000000000000000000000600082015250565b7f646174613a6170706c69636174696f6e2f6a736f6e3b6261736536342c000000600082015250565b7f4552433732313a2063616c6c6572206973206e6f7420746f6b656e206f776e6560008201527f72206e6f7220617070726f766564000000000000000000000000000000000000602082015250565b61384d8161310e565b811461385857600080fd5b50565b61386481613120565b811461386f57600080fd5b50565b61387b8161312c565b811461388657600080fd5b50565b61389281613178565b811461389d57600080fd5b5056fe416e204e465420772f20494420257320686173206265656e206d696e74656420746f2025734142434445464748494a4b4c4d4e4f505152535455565758595a6162636465666768696a6b6c6d6e6f707172737475767778797a303132333435363738392b2fa264697066735822122017e3ff162695b40eec664999b3fa3bf060554de78cc73c900f392d3bc3a53e6464736f6c634300080400333c73766720786d6c6e733d27687474703a2f2f7777772e77332e6f72672f323030302f73766727207072657365727665417370656374526174696f3d27784d696e594d696e206d656574272076696577426f783d273020302033353020333530273e3c7374796c653e2e62617365207b2066696c6c3a2077686974653b20666f6e742d66616d696c793a2073657269663b20666f6e742d73697a653a20323470783b207d3c2f7374796c653e3c726563742077696474683d273130302527206865696768743d2731303025272066696c6c3d27626c61636b27202f3e3c7465787420783d273530252720793d273530252720636c6173733d27626173652720646f6d696e616e742d626173656c696e653d276d6964646c652720746578742d616e63686f723d276d6964646c65273e",
  "linkReferences": {},
  "deployedLinkReferences": {}
}